:020000040000FA
:0600000071EF19F012007F
:0600080004EF08F01200F5
:060018000CEF08F01200DD
:0610000071EF19F012006F
:06100800ECEF11F01200F4
:061018003FEF12F0120090
:06102A0001001633000076
:08103000D300000014000000D1
:08103800D9CFE6FFE1CFD9FF9B
:10104000E652A09A6A6A686A706A010EE66EE66AFB
:10105000E66A710EE66E0F0EE66E07EC19F0146E7E
:10106000050EE15E1450160E6F6E9F0E6B6E7B0EBA
:10107000696EDF6ADF50146E156A080E145C000E8C
:10108000155810E2DF50040DF3CFE9FFF4CFEAFF6B
:10109000000EE926040EEA22EE6AEE6AEE6AEE6AB5
:1010A000DF2AE8D76D8C6E6A6D986D9C68A607D0B4
:1010B00068960001B76BBC6BBD6BBE6BF7D70001C8
:1010C000010ECF6FD06FD16BD26BC56BDF6A020E92
:1010D000DF5C26E2EA6ADF34FE0BEA36E96EAE0E2A
:1010E000E926000EEA22EE6AED6AEA6ADF34FE0BB8
:1010F000EA36E96EAA0EE926000EEA22EE6AED6AE9
:10110000DF50EA6AC90FE96E000EEA22EF6ADF508B
:10111000EA6ACB0FE96E000EEA22EF6ADF2AD7D720
:101120000001080EAE6F040EAF6F160E706E040154
:10113000200E026F040E036F080E016F840E006F05
:101140000001A46BA36BE552E552E7CFD9FF120073
:10115000D9CFE6FFE1CFD9FFE6520001A30507E1B1
:101160006DBA05D0686A69806988020EA36F6850FD
:10117000040B06E06950040B03E0689411EC0FF0D7
:101180006DA202D0A19A97D06850010B09E0695076
:10119000010B06E051DFA08A0001040EA36F6890E6
:1011A0006850100B06E06950100B03E0FCEC0EF0E9
:1011B000689868AC19D069AC0FD0010EE66EE66A8B
:1011C000000EE66EE66A730EE66EE66AD2EC15F085
:1011D000146E060EE15E1450689C0001CD5101E0D2
:1011E000CD07CD5101E10BDA6850200B05E06950C5
:1011F000200B02E0E3EC0EF06850020B13E06950A4
:10120000020B10E0010EE66EE66A000EE66EE66A7C
:10121000E6687F0EE66ED2EC15F0146E060EE15E07
:1012200014506A6A040E0001E76EA319E8AE02D0FA
:10123000E73402D0E750A35D02E2A19A3CD069A650
:1012400039D0DF6A040EDF5C35E268A632D06CCF9D
:10125000C6F00001C651780BE842E842E842C76F89
:101260006896C6B508D0C751EA6ACB0FE96E000E82
:10127000EA22EF7007D0C751EA6AC90FE96E000E83
:10128000EA22EF70C75103E128EC0FF010D0000EF6
:10129000E66EE66AC60EE66E000EE66E720EE66E4C
:1012A000E66AD2EC15F0146E060EE15E1450DF2AE9
:1012B000C9D700D0A19AE552E552E7CFD9FF120075
:1012C000D9CFE6FFE1CFD9FF020EE126FD0EDBA468
:1012D00007D0E66AFE0EDBCFE6FF22DAE552E552E2
:1012E000FD0EDBA208D0010EE66EFE0EDBCFE6FFA0
:1012F00017DAE552E552FE0EDB50156A700F146ED8
:101300000F0E152214C0DEFF15C0DDFFDECFE9FF92
:10131000DDCFEAFFFD0EDBCFEFFF020EE15C02E264
:10132000E16AE552E16EE552E7CFD9FF1200D9CF6D
:10133000E6FFE1CFD9FF020EE126FD0EDB500FE004
:10134000FE0EEA6ADB34FE0BEA36E96EAE0EE926E3
:10135000000EEA22EECFDEFFEDCFDDFF0ED0FE0E57
:10136000EA6ADB34FE0BEA36E96EAA0EE926000EC5
:10137000EA22EECFDEFFEDCFDDFFD9CFE9FFDACFF6
:10138000EAFFEE50ED1003E1F36AF46A49D0DECFD4
:10139000E9FFDDCFEAFF020EE926000EEA22FB0E8E
:1013A000DBCFEEFFFC0EDBCFEDFFDECFE9FFDDCFC5
:1013B000EAFFEE52FA0EDBCFEFFF400E146EDECFE7
:1013C000E9FFDDCFEAFF1450EF16880E146EDECF72
:1013D000E9FFDDCFEAFF1450EF12FD0EDB500CE009
:1013E000FE0EEA6ADB34FE0BEA36E96EAE0EE92643
:1013F000000EEA22EF740BD0FE0EEA6ADB34FE0B1D
:10140000EA36E96EAA0EE926000EEA22EF74DECF74
:1014100014F0DDCF15F014C0F3FF15C0F4FF00D0B9
:10142000020EE15C02E2E16AE552E16EE552E7CFCD
:10143000D9FF1200D9CFE6FFE1CFD9FF020EE12696
:10144000FE0EDB5020E1A8C0E9FFA9C0EAFFEE5282
:10145000080EEF6EA8C0E9FFA9C0EAFF020EE92658
:10146000000EEA22200EEE6E040EED6EA8C0E9FF1B
:10147000A9C0EAFF8C0EEF6EAEC0E9FFAFC0EAFF75
:10148000840EEF6E3DD0FD0EDB50E824166EFE0E8E
:10149000DB50040DF3501624040DF3CF14F0F4CFF9
:1014A00015F0000E1426040E152214C0DEFF15C020
:1014B000DDFF840E146EDECFE9FFDDCFEAFF1450AE
:1014C000EF12FD0EDB50E824166EFE0EDB50040D0D
:1014D000F3501624010F040DF3CF14F0F4CF15F0E0
:1014E000000E1426040E152214C0DEFF15C0DDFF09
:1014F000840E146EDECFE9FFDDCFEAFF1450EF1249
:10150000020EE15C02E2E16AE552E16EE552E7CFEC
:10151000D9FF1200D9CFE6FFE1CFD9FF6DA84ED099
:10152000FE0EEA6ADB34FE0BEA36E96EAE0EE92601
:10153000000EEA22EE50EFCFEAFFE96E400EEE1603
:10154000EE6AEE6AEE6AFE0EEA6ADB34FE0BEA36FB
:10155000E96EAE0EE926000EEA22EE50EFCFEAFF6A
:10156000E96EEE7CFE0EEA6ADB34FE0BEA36E96ECB
:10157000AE0EE926000EEA22EF74400E146EFE0E47
:10158000EA6ADB34FE0BEA36E96EAE0EE926000E9F
:10159000EA22EE50EFCFEAFFE96E1450EF16FE0E8E
:1015A000EA6ADB34FE0BEA36E96EAE0EE926000E7F
:1015B000EA22EE50EFCFEAFFE96EEF7CE552E7CF8B
:1015C000D9FF12006D6A696A0001A36B00D0120096
:1015D0000001A35113E16D6A696A160E6F6E9F0ECA
:1015E0006B6E7B0E696ED08EA28AA08AF28E6DB66B
:1015F00002D06D86FCD70001010EA36F120000011E
:10160000CF514DE1010ECF6FD05149E1010ED06FA6
:10161000020EB35D0DE1AEC0E9FFAFC0EAFFEE52CE
:10162000EF6AAEC0E9FFAFC0EAFFC80EEF6E37D079
:10163000B30535E1C86BA6C0E9FFA7C0EAFFEE52CB
:10164000080EEF6EA6C0E9FFA7C0EAFF020EE9266A
:10165000000EEA22200EEE6E040EED6EA6C0E9FF2B
:10166000A7C0EAFF840EEF6E010EC86FA8C0E9FFA5
:10167000A9C0EAFFEE52080EEF6EA8C0E9FFA9C0AC
:10168000EAFF020EE926000EEA22200EEE6E040E9C
:10169000ED6EA8C0E9FFA9C0EAFF800EEF6E120050
:1016A0000001D16BD26B020EB35D1AE1A8C0E9FF55
:1016B000A9C0EAFFEE52080EEF6EA8C0E9FFA9C06C
:1016C000EAFF020EE926000EEA22280EEE6E040E54
:1016D000ED6EA8C0E9FFA9C0EAFFC80EEF6E1FD0EB
:1016E000B8510401265D0001B9510401275904E2F3
:1016F00026C4B8F027C4B9F0D1D8AEC0E9FFAFC056
:10170000EAFF020EE926000EEA22280EEE6E040E13
:10171000ED6EAEC0E9FFAFC0EAFFC80EEF6E12007B
:10172000D9CFE6FFE1CFD9FF020EE126000EDE6E33
:10173000040EDD6EFD0EDB50E824166EFE0EDB504F
:10174000040DF3501624040DF3CF14F0F4CF15F06C
:10175000D9CFE9FFDACFEAFF1450EE261550ED227B
:10176000DECFE9FFDDCFEAFFEF9EFD0EDB500FE19C
:10177000FE0EEA6ADB34FE0BEA36E96EAA0EE926B3
:10178000000EEA22DECFEEFFDDCFEDFF0ED0FE0E23
:10179000EA6ADB34FE0BEA36E96EAE0EE926000E8D
:1017A000EA22DECFEEFFDDCFEDFFDECFE9FFDDCFBA
:1017B000EAFFEF9CDECFE9FFDDCFEAFF040EE9266A
:1017C000000EEA22EF8C020EE15C02E2E16AE552D1
:1017D000E16EE552E7CFD9FF12006D980001B7BF67
:1017E0002BD0BCAF09D0020EB36FD25101E158DF4C
:1017F0000001D06BCF6B1FD0A8C0E9FFA9C0EAFFE2
:10180000EE52080EEF6EA8C0E9FFA9C0EAFF020E73
:10181000E926000EEA22200EEE6E040EED6EA8C040
:10182000E9FFA9C0EAFF8C0EEF6EAEC0E9FFAFC0C2
:10183000EAFF840EEF6E31D0040120AF0DD000011D
:10184000010EB36FD15101E12BDF0001D06BCF6BE3
:10185000CE5101E1D4DE21D00001020EB36FA8C049
:10186000E9FFA9C0EAFFEE52080EEF6EA8C0E9FF3B
:10187000A9C0EAFF020EE926000EEA22200EEE6E53
:10188000040EED6EA8C0E9FFA9C0EAFF840EEF6E5A
:10189000D06BCF6BCE5101E1B2DE1200D9CFE6FFA3
:1018A000E1CFD9FFE652080EDF6E0001B85D000EF1
:1018B000B9590BE2B8C0DFFFB25103E1010EB26FBC
:1018C00004D0B20502E1020EB26FDF50146E156A49
:1018D0001450B85DB86F1550B959B96FAEC0E9FF73
:1018E000AFC0EAFFEE52DFCFEFFF280EC26F040E4B
:1018F000C36FB7B11CD0DF5019E0B4C0F6FFB42BF2
:10190000B5C0F7FF000EB523B6C0F8FFB623080038
:10191000F550E66EC2C0E9FFC3C0EAFFC22B000E5D
:10192000C323E552E750EF6EDF06E5D717D0DF504F
:1019300015E0B4C0E9FFB5C0EAFFB42B000EB52333
:10194000EF50E66EC2C0E9FFC3C0EAFFC22B000E33
:10195000C323E552E750EF6EDF06E9D7E552E552C3
:10196000E7CFD9FF1200D9CFE6FFE1CFD9FF020EB2
:10197000E126A6C0E9FFA7C0EAFFEE52EFCFDFFFE6
:10198000DFCF14F014500001BD5D000EBE5902E21D
:10199000BDC0DFFFDF50146E156A1450BD5DBD6F12
:1019A0001550BE59BE6F010EDB6ADF50F36E010E9B
:1019B000DBCFF4FFF350F45C16E2010EDB50EA6A71
:1019C000280FE96E040EEA22EF50E66EBAC0E9FF76
:1019D000BBC0EAFFBA2B000EBB23E552E750EF6E07
:1019E000010EDB2AE2D7000ED880BD55000EBE5591
:1019F00028E2A8C0E9FFA9C0EAFFEE52080EEF6E88
:101A0000A8C0E9FFA9C0EAFF020EE926000EEA22FB
:101A1000280EEE6E040EED6EA6C0E9FFA7C0EAFF29
:101A2000EF50400B07E1A8C0E9FFA9C0EAFFC80ECC
:101A3000EF6E06D0A8C0E9FFA9C0EAFF880EEF6EDE
:101A40002BD0A8C0E9FFA9C0EAFFEE52080EEF6E46
:101A5000A8C0E9FFA9C0EAFF020EE926000EEA22AB
:101A6000200EEE6E040EED6EA8C0E9FFA9C0EAFFDD
:101A7000840EEF6EBF51C011C11109E007D0C1C083
:101A8000FBFFC0C0FAFF0001BF51F96EF8DF000193
:101A9000BC9FCE5101E1B3DD020EE15C02E2E16ADE
:101AA000E552E16EE552E7CFD9FF1200D9CFE6FF4C
:101AB000E1CFD9FFE6520001B78F010EE66EE66A6C
:101AC000E66A710EE66E0F0EE66E07EC19F0146E04
:101AD000050EE15E1450200EE66EE66AE66A000E20
:101AE000E66E040EE66E07EC19F0146E050EE15E6C
:101AF00014506D8CDF6A020EDF5C10E2DF50EA6A80
:101B0000C90FE96E000EEA22EF6ADF50EA6ACB0FD6
:101B1000E96E000EEA22EF6ADF2AEDD7010EE66ECB
:101B2000E66AE66AA50EE66E000EE66E07EC19F0B0
:101B3000146E050EE15E14506D9C0001080EAE6F30
:101B4000040EAF6F000EA66F040EA76FA6C0A8F01C
:101B5000A7C0A9F022C4A4F0A45103E1100EA36F02
:101B600013D0010EE66EE66AA40EE66E000EE66E77
:101B7000010EE66EE66AD2EC15F0146E060EE15E1A
:101B800014500001200EA36FE552E552E7CFD9FFB4
:101B90001200800E0401205D01E0ACD00001C00EF7
:101BA000B76F04012351030A61E0010A10E0030A40
:101BB00003E00001B76B9ED00001160EB46F2D0E2E
:101BC000B56F000EB66F120EB86FB96B93D0D90E09
:101BD000146E2D0E156E000E166E22C417F0186AC4
:101BE000196A030E0C6E0D6A0E6A17C007F018C052
:101BF00008F019C009F012EC17F004C017F005C086
:101C000018F006C019F014501724F36E1550182060
:101C1000F46E16501920F86EF4CFF7FFF3CFF6FFED
:101C20000900F5CFB4F00900F5CFB5F00800F5CF05
:101C3000B6F0B4C0F6FFB5C0F7FFB6C0F8FF020EAD
:101C4000F626000EF722F8220800F5CFB8F0B4C04F
:101C5000F6FFB5C0F7FFB6C0F8FF030EF626000E7C
:101C6000F722F8220800F5CFB9F044D0030E225D28
:101C70003EE2DC0E146E2D0E156E000E166E22C4A2
:101C800017F0186A196A030E0C6E0D6A0E6A17C0F7
:101C900007F018C008F019C009F012EC17F004C0E2
:101CA00017F005C018F006C019F014501724F36E91
:101CB00015501820F46E16501920F86EF4CFF7FF67
:101CC000F3CFF6FF0900F5CFB4F00900F5CFB5F07A
:101CD0000800F5CFB6F0B4C0F6FFB5C0F7FFB6C048
:101CE000F8FF0800F5500001B86FB96B02D0000191
:101CF000B76B00D01200D9CFE6FFE1CFD9FF020EBB
:101D0000E1260401286B296B20511F0B020A12E007
:101D1000030A0DE0010A01E042D00001B78F04017F
:101D200028810001C40502E10401288338D00001A4
:101D3000B78F35D00001B78F040124BF10D02451D4
:101D40000F0BE96EEA6AD890E936EA36AA0EE92660
:101D5000000EEA22EECFDEFFEDCFDDFF0FD02451E3
:101D60000F0BE96EEA6AD890E936EA36AE0EE9263C
:101D7000000EEA22EECFDEFFEDCFDDFFDECFE9FF82
:101D8000DDCFEAFFEF50800B09E0DECFE9FFDDCFCA
:101D9000EAFFEF50040B02E0010E286F00D00001B3
:101DA000B7AF07D0280EB46F040EB56FB781020E1F
:101DB000B86F020EE15C02E2E16AE552E16EE552C3
:101DC000E7CFD9FF120070A015D0A6C0E9FFA7C0C9
:101DD000EAFFEF5080080DE1AEC0E9FFAFC0EAFFB7
:101DE000EF50840806E1A6C0E9FFA7C0EAFF8C0E09
:101DF000EF6E7090689A1200698468986D82000195
:101E0000010EC56F000EE66EE66AE66EE66A750EB6
:101E1000E66EE66AD2EC15F0146E060EE15E145022
:101E200012000001C56B000EE66EE66AE66EE66A19
:101E3000740EE66EE66AD2EC15F0146E060EE15EE4
:101E400014506D92699468A402D06894FCD7120073
:101E5000D9CFE6FFE1CFD9FFE65200012D0ECD6FBD
:101E6000FD0EC61553E17E0EC615E8407F0B040D2E
:101E7000F3CFA6F0F4CFA7F0000EA627040EA723F9
:101E8000A6C0A8F0A7C0A9F0A875A6C0E9FFA7C082
:101E9000EAFFEF503C0BE842E8420D0835E1DF6A0B
:101EA000080EDF5C23E2A6C0E9FFA7C0EAFF020E2E
:101EB000E926000EEA22EE50EFCFEAFFE96EEF507E
:101EC000E66EDF50EA6A200FE96E040EEA22E55260
:101ED000E750EF6EA6C0E9FFA7C0EAFF020EE926B1
:101EE000000EEA22EE2AEF22DF2ADAD7A6C0E9FFA7
:101EF000A7C0EAFF020EE926000EEA22200EEE6ECF
:101F0000040EED6E0DD801D03AD805D0FD0EC615E1
:101F1000040801E159D8E552E552E7CFD9FF120094
:101F20000001B26BCE6BD16BD26BC86BB36BAEC022
:101F3000E9FFAFC0EAFFEF9EAE75AEC0E9FFAFC0EC
:101F4000EAFFEF9EAE75A8C0E9FFA9C0EAFFEF9EC9
:101F5000B76BB86BB96BBC6BBD6BBE6B92D8000E28
:101F6000E66EE66AE66EE66A030EE66EE66AD2ECB6
:101F700015F0146E060EE15E1450EDEF0BF0020E3C
:101F80000001B35D02E1EFDC1ED0B36BC8511AE172
:101F9000A8C0E9FFA9C0EAFFEE52080EEF6EA8C084
:101FA000E9FFA9C0EAFF020EE926000EEA22200E90
:101FB000EE6E040EED6EA8C0E9FFA9C0EAFF8C0E1C
:101FC000EF6E01D0C86B1200D9CFE6FFE1CFD9FF89
:101FD000E652AEC0E9FFAFC0EAFFEF50400B01E0B0
:101FE000010EDF6E0001AE75080EA35D09E122C48B
:101FF0006EFF6E5003E0100EA36F02D0040EA36FAD
:10200000B30528E1AEC0E9FFAFC0EAFF020EE92642
:10201000000EEA22280EEE6E040EED6E3FDC020E7C
:102020000001B25D07E1AEC0E9FFAFC0EAFF840E78
:10203000EF6E0FD0DF5007E1AEC0E9FFAFC0EAFF9F
:10204000C80EEF6E06D0AEC0E9FFAFC0EAFF880E43
:10205000EF6E12D0BCAF0FD0BF51C011C11109E05B
:1020600007D0C1C0FBFFC0C0FAFF0001BF51F96E2D
:10207000F8DF0001BC9FB36BE552E552E7CFD9FF13
:10208000120004012051600BE842E842E842E842B5
:10209000E842000901E058D021510C0A54E00B0A33
:1020A00043E00C0A35E0010A26E00B0A22E0020AAE
:1020B00020E0030A1CE0080A10E0010A0CE00F0A05
:1020C00008E0030A01E03FD00001B78F080EA36FBC
:1020D0003BD05FDD39D0EADC37D00001A40EB46F0D
:1020E000000EB56FB781010EB86FB78F2DD003DE2C
:1020F0002BD02BD829D024510001B46FB56BA50E7D
:10210000B427000EB523B781010EB86FB78F1CD06E
:102110000001B78F04012451EA6AA50FE96E000E91
:10212000EA2222C4EFFF10D0000EE66EE66AE66EE9
:10213000E66A020EE66EE66AD2EC15F0146E060E42
:10214000E15E145001D000D01200D9CFE6FFE1CFFC
:10215000D9FF050EE1260401220510E120511F0BD5
:1021600000090CE10001B78F030E0401215D04E1B9
:102170000001010EC46F02D00001C46B04012251A2
:1021800001E020D120511F0B020801E01BD1245196
:102190000F0B000901E116D124510F0B010801E2D8
:1021A00011D1200E0001A35D01E00CD1B78F040115
:1021B00024BF1AD024510F0BE96EEA6AD890E93691
:1021C000EA36AA0EE926000EEA22EECFDEFFEDCFB8
:1021D000DDFF24510F0BEA6ACB0FE96E000EEA22F5
:1021E000020EEFCFDBFF19D024510F0BE96EEA6A24
:1021F000D890E936EA36AE0EE926000EEA22EECF96
:10220000DEFFEDCFDDFF24510F0BEA6AC90FE96E47
:10221000000EEA22020EEFCFDBFFD950020FE96E6B
:10222000DACFEAFFEF50010B03E1000EDF9401D09B
:10223000DF8424BF10D024510F0BE96EEA6AD890D6
:10224000E936EA36AA0EE926000EEA22DECFEEFFD4
:10225000DDCFEDFF0FD024510F0BE96EEA6AD89065
:10226000E936EA36AE0EE926000EEA22DECFEEFFB0
:10227000DDCFEDFF030E215D23E1DECFE9FFDDCFF2
:10228000EAFFEF50800B13E024BF09D024510F0B5D
:10229000EA6ACB0FE96E000EEA22EF8208D02451E1
:1022A0000F0BEA6AC90FE96E000EEA22EF82840E74
:1022B000146EDECFE9FFDDCFEAFF1450EF1282D0BB
:1022C000DF74DECFE9FFDDCFEAFFEF50800B1BE0CC
:1022D000DECFE9FFDDCFEAFFEF9EDECFE9FFDDCF06
:1022E000EAFFEF8C020EE66EE66ADECFE6FFDDCF98
:1022F000E6FF050EE66EE66AD2EC15F0146E060EE9
:10230000E15E145005D0DECFE9FFDDCFEAFFEF8CB0
:10231000DF74D950020FE96EDACFEAFFEF50020BFB
:1023200007E1DECFE9FFDDCFEAFFEF50800B2DE0C4
:10233000040124BF09D024510F0BEA6ACB0FE96EC8
:10234000000EEA22EF9208D024510F0BEA6AC90F5F
:10235000E96E000EEA22EF923B0E146EDECFE9FF2B
:10236000DDCFEAFF1450EF16020EE66EE66ADECF0E
:10237000E6FFDDCFE6FF050EE66EE66AD2EC15F06D
:10238000146E060EE15E145008D03B0E146EDECFC4
:10239000E9FFDDCFEAFF1450EF16040124510F0BC3
:1023A000156A700F146E0F0E1522030E14C0DBFF9A
:1023B000040E15C0DBFF030EDBCFE9FF040EDBCFFD
:1023C000EAFFEF90050EE15C02E2E16AE552E16EA0
:0823D000E552E7CFD9FF12002E
:0823D800DACFE4FFE2CFDAFFE7
:1023E000E9CFE4FFEACFE4FFF6CFE4FFF7CFE4FF65
:1023F000F8CFE4FFF5CFE4FFF3CFE4FFF4CFE4FF41
:10240000FACFE4FFFBCFE4FF00EE00F0140EE80487
:1024100003E3EECFE4FFFBD700EE14F0060EE80472
:1024200003E3EECFE4FFFBD7E652A8EC08F0E55259
:1024300000EE19F0060EE80403E3E5CFEDFFFBD74D
:1024400000EE13F0140EE80403E3E5CFEDFFFBD735
:10245000E5CFFBFFE5CFFAFFE5CFF4FFE5CFF3FFD4
:10246000E5CFF5FFE5CFF8FFE5CFF7FFE5CFF6FFC6
:10247000E5CFEAFFE5CFE9FFE5CFDAFF1100D8CFDE
:10248000E4FFE0CFE4FFE46EDACFE4FFE2CFDAFF6F
:10249000E652E552E5CFDAFFE550E5CFE0FFE5CFC4
:1024A000D8FF100005D8E8EC0AF047D8FED7120094
:1024B0000F0EC16E926A936A946A956A966A806AF0
:1024C000816A826A836A846A93868184800EE66E5A
:1024D000080EE66EECEC18F0E552E552700EC86E90
:1024E00026D81CEC08F0839083820001D86B83947B
:1024F0008386D96B8098DC6BE66AD1EC18F0E552E4
:10250000E5C0E6FFE6C0E6FFAFEC18F0E552E552A5
:102510000001DD6FDE6BE3C0E6FFE4C0E6FFAFEC79
:1025200018F0E552E5520001DF6FE06B1200000188
:10253000D36BD46BD56BD66B1200200E0001E76E07
:10254000A319E8AE02D0E73402D0E750A35D03E35D
:102550006D50020B01E0DED20001D351D41102E133
:10256000000E08D0D3C0E9FFD4C0EAFFEF50800BC3
:1025700001E0010E000901E0CDD205010051040A7D
:1025800001E1B8D1070A01E1ADD0010A2DE0030A4B
:1025900001E0ADD20151010A01E025D040690001FE
:1025A000D551D61102E1000E08D0D5C0E9FFD6C042
:1025B000EAFFEF50800B01E0010E000913E1400E2D
:1025C000E66E400EE66E050EE66E010EE66EE66EF7
:1025D00097EC09F0146E050EE15E1450F3CFD5F0C0
:1025E000F4CFD6F000D083D20151060A72E0030A7C
:1025F0005BE0010A44E0070A2DE0010A01E071D026
:1026000081A603D0010E406F01D0406B0001D5516F
:10261000D61102E1000E08D0D5C0E9FFD6C0EAFF0E
:10262000EF50800B01E0010E000913E1400EE66E51
:10263000400EE66E050EE66E010EE66EE66E97EC57
:1026400009F0146E050EE15E1450F3CFD5F0F4CF0F
:10265000D6F047D0C580C5B0FED7280EE66EE5ECB3
:1026600017F0E5527FEC19F002C5E6FFE5EC17F034
:10267000E5527FEC19F0C584C5B4FED732D0C580D1
:10268000C5B0FED7280EE66EE5EC17F0E5527FECFC
:1026900019F0500EE66EE5EC17F0E5527FEC19F0FC
:1026A000C584C5B4FED71DD0C580C5B0FED7280EE1
:1026B000E66EE5EC17F0E5527FEC19F0460EE66E9B
:1026C000E5EC17F0E5527FEC19F0C584C5B4FED7F0
:1026D00008D081940A0EE66E51EC19F0E55281841F
:1026E00000D005D20151070A01E1E3D0010A01E15E
:1026F000B3D0030A01E183D0010A54E0070A1FE0C6
:10270000010A10E0030A01E0F4D0020506E183802B
:1027100083920001010ED86F04D083908382000160
:10272000D86BE7D0020506E1838483960001010E91
:10273000D96F04D0839483860001D96BDAD0020567
:1027400019E180880001010EDC6FC580C5B0FED79D
:10275000160EE66EE5EC17F0E5527FEC19F0010E6F
:10276000E66EE5EC17F0E5527FEC19F0C584C5B4D0
:10277000FED717D080980001DC6BC580C5B0FED7AE
:10278000160EE66EE5EC17F0E5527FEC19F0020E3E
:10279000E66EE5EC17F0E5527FEC19F0C584C5B4A0
:1027A000FED7A7D00001D80504E10501010E406F56
:1027B00002D00501406B0001D551D61102E1000E97
:1027C00008D0D5C0E9FFD6C0EAFFEF50800B01E08A
:1027D000010E000913E1400EE66E400EE66E050E96
:1027E000E66E010EE66EE66E97EC09F0146E050ECD
:1027F000E15E1450F3CFD5F0F4CFD6F07AD00001DB
:10280000D90504E10501010E406F02D00501406BBE
:102810000001D551D61102E1000E08D0D5C0E9FF64
:10282000D6C0EAFFEF50800B01E0010E000913E172
:10283000400EE66E400EE66E050EE66E010EE66E8A
:10284000E66E97EC09F0146E050EE15E1450F3CFBE
:10285000D5F0F4CFD6F04DD00001DC0504E1050140
:10286000010E406F02D00501406B0001D551D61119
:1028700002E1000E08D0D5C0E9FFD6C0EAFFEF5054
:10288000800B01E0010E000913E1400EE66E400EE0
:10289000E66E050EE66E010EE66EE66E97EC09F04A
:1028A000146E050EE15E1450F3CFD5F0F4CFD6F0E0
:1028B00020D002510001E16FE26BC580C5B0FED7A8
:1028C000160EE66EE5EC17F0E5527FEC19F0030EFC
:1028D000E66EE5EC17F0E5527FEC19F0E1C0E6FF9B
:1028E000E5EC17F0E5527FEC19F0C584C5B4FED7CE
:1028F00000D0FDD00151060A01E1CBD0030A01E16D
:102900009BD0010A74E0070A4EE0010A27E0030A9F
:1029100001E0ECD002051DE1E66821EC19F0E5527A
:10292000040E086E096ADDC00DF0DEC00EF0F4EC96
:1029300016F006C0DDF007C0DEF0DDC0E6FFDEC049
:10294000E6FF80EC18F0E552E5520001010EDA6F67
:1029500004D088EC19F00001DA6BC8D002510001F4
:10296000DD6FDE6BDDC0E6FFE5C0E6FFE6C0E6FF3B
:102970001EEC18F0E552E552E552040E086E096AA5
:10298000DDC00DF0DEC00EF0F4EC16F006C0DDF098
:1029900007C0DEF0DDC0E6FFDEC0E6FF80EC18F029
:1029A000E552E552A3D002051DE1E668AAEC17F056
:1029B000E552040E086E096ADFC00DF0E0C00EF0AB
:1029C000F4EC16F006C0DFF007C0E0F0DFC0E6FF71
:1029D000E0C0E6FF51EC18F0E552E5520001010EAF
:1029E000DB6F04D086EC19F00001DB6B7FD0025165
:1029F0000001DF6FE06BDFC0E6FFE3C0E6FFE4C08D
:102A0000E6FF1EEC18F0E552E552E552040E086EA2
:102A1000096ADFC00DF0E0C00EF0F4EC16F006C05D
:102A2000DFF007C0E0F0DFC0E6FFE0C0E6FF51ECFA
:102A300018F0E552E5525AD00001DA0504E105012B
:102A4000010E406F02D00501406B0001D551D61137
:102A500002E1000E08D0D5C0E9FFD6C0EAFFEF5072
:102A6000800B01E0010E000913E1400EE66E400EFE
:102A7000E66E050EE66E010EE66EE66E97EC09F068
:102A8000146E050EE15E1450F3CFD5F0F4CFD6F0FE
:102A90002DD00001DB0504E10501010E406F02D0DD
:102AA0000501406B0001D551D61102E1000E08D09E
:102AB000D5C0E9FFD6C0EAFFEF50800B01E0010E60
:102AC000000913E1400EE66E400EE66E050EE66E5E
:102AD000010EE66EE66E97EC09F0146E050EE15EEF
:102AE0001450F3CFD5F0F4CFD6F000D000D0400E84
:102AF000E66E000EE66E050EE66EE66A010EE66E06
:102B000097EC09F0146E050EE15E1450F3CFD3F08C
:102B1000F4CFD4F0120012001200120012001BEFCA
:102B200016F012001E0EE66E010EE66E60EC09F065
:102B3000E552E552400EE66E000EE66E050EE66EBC
:102B4000E66A010EE66E97EC09F0146E050EE15E82
:102B50001450F3CFD3F0F4CFD4F012000001C40529
:102B600020E10001C5051DE1A09AD6DF6D920001AC
:102B7000C56B0001100EA16F0E0EA26FA107000E13
:102B8000A25BA151A211FAE16D84080EA16F070E9C
:102B9000A26FA107000EA25BA151A211FAE16D94F0
:102BA000A08A1200D9CFE6FFE1CFD9FFFD0EDBCF1F
:102BB00008F0FE0EDBCF09F0E868081802E17F0E8E
:102BC000091831E0030E081801E109502AE0020E4D
:102BD000081801E1095023E0010E081801E109502D
:102BE0001CE0740E081801E1095015E0750E081874
:102BF00001E109500EE0730E081801E1095007E0E9
:102C0000720E081801E1095001E00FD00ED085DFE7
:102C10000CD081DF0AD080DF08D084DF06D081DFCE
:102C200004D07DDF02D07ADF00D0010E00D0E55263
:062C3000E7CFD9FF1200FE
:0A2C3600040120511F0B010801E00A
:102C400069D0245101E066D0060E215D26E12351B2
:102C5000230A22E0010A13E0030A01E01ED000016A
:102C6000A4050CE100013A0EB46F2D0EB56F000EF5
:102C7000B66F090EB86FB96BC00EB76F0ED00001FA
:102C8000BD0EB46F2D0EB56F000EB66F1C0EB86F73
:102C9000B96BC00EB76F01D000D004012051600B9A
:102CA000E842E842E842E842E842010801E032D066
:102CB00021510B0A29E0080A1CE0090A14E0080A5D
:102CC00007E00B0A04E0080A01E024D023D022D058
:102CD0000001F10EB46F000EB56F010EB86FB96B45
:102CE000C10EB76F17D00001800EB76F23C4F1F08B
:102CF00011D00001F20EB46F000EB56F010EB86F67
:102D0000B96B810EB76F06D00001800EB76F22C479
:062D1000F2F000D01200F9
:0A2D16001201000200000008D804BA
:102D2000420002000102030109022900010100C062
:102D30003209040000020300000009211101000112
:102D4000221C000705810340000107050103400024
:102D50000104030904240341004200200045006CE3
:102D60000065006300740072006F006E006900630C
:102D7000007300200055004B0034035000690063CD
:102D8000006B00200061006E006400200050006CA9
:102D900000610063006500200043006F006E007456
:102DA0000072006F006C006C00650072001003562A
:102DB00000650072005F0033002E0030000600FF47
:102DC0000901A10119012940150125407508954007
:102DD0008100190129409100C0282D00512D005576
:082DE0002D00792D00AD2D003E
:082DE80008C012F008500D02B2
:102DF000F4CF07F0F3CF06F009500E02F4CF09F03C
:102E0000F3CF08F00D02F3500726F4500822E86AC9
:102E1000092212500E02F3500726F4500822E86AE5
:102E20000922000C09C013F008C012F007C011F00D
:102E300007500C02F4CF05F0F3CF04F008500D0258
:102E4000F4CF07F0F3CF06F00C02F3500526F45050
:102E50000622E86A072211500D02F3500526F450AD
:102E60000622E86A072209500C02F3500626F450A5
:102E7000072209500D02086AE86A0822F350072663
:102E8000F450082211500E02F3500626F450072287
:102E9000096AE86A0822092212500E02F350072636
:102EA000F4500822E86A092213500E02F350082653
:062EB000F4500922000CA1
:0A2EB6002A0EF66E100EF76E000EE5
:102EC000F86E00010900F550EC6F0900F550ED6F48
:102ED00003E1EC6701D03DD00900F550E76F090030
:102EE000F550E86F0900F550E96F09000900F55049
:102EF000E96E0900F550EA6E090009000900F55075
:102F0000EA6F0900F550EB6F09000900F6CFEEF00B
:102F1000F7CFEFF0F8CFF0F0E7C0F6FFE8C0F7FF2B
:102F2000E9C0F8FF0001EA5302E1EB5307E00900B2
:102F3000F550EE6EEA07F8E2EB07F9D7EEC0F6FFC0
:102F4000EFC0F7FFF0C0F8FF0001EC07000EED5BEB
:042F5000BFD71200D5
:0C2F5400D9CFE6FFDACFE6FFE1CFD9FFCE
:102F6000E2CFDAFFE652E652E652E652F8CF02F03E
:102F7000F6CF03F00C0EBA6E050EF66EF76A300E41
:102F8000F86E0800F550010B03E0010EDB6802D07B
:102F9000010EDB6A010EDB5002E0949201D09396A1
:102FA000CA94FD0EDB50CB6ECA8402C0F8FF03C08A
:102FB000F6FF040EE15C02E2E16AE552E16EE552E1
:0A2FC000E5CFDAFFE7CFD9FF1200DA
:062FCA00D9CFE6FFDACFCB
:102FD000E6FFE1CFD9FFE2CFDAFFFD0EDB50C96E8D
:102FE000C6AE02D0FF0E24D00F0EC61408080FE0A4
:102FF0000F0EC6140B080BE0C6889EA6FED7C7505E
:10300000040B03E1C750010B10E0000E11D00F0EAE
:10301000C614080804E00F0EC6140B0809E1C7B077
:10302000FED77FEC19F0C5AC02D0FE0E01D0000E29
:0C303000E552E5CFDAFFE7CFD9FF120030
:04303C00D9CFE6FF03
:10304000DACFE6FFE1CFD9FFE2CFDAFFE652DF6A5F
:10305000FF0EE76EFC0EDBCF14F0E7501416145091
:10306000A96EFB0EDB50A86EA69EA69CA684F2500D
:10307000800B01E0010EDF6EF29E550EA76EAA0EC8
:10308000A76EA682A6B2FED7DF50E8B0F28EE8A007
:10309000F29EA694E552E552E5CFDAFFE7CFD9FFDD
:0230A00012001C
:0E30A200D9CFE6FFDACFE6FFE1CFD9FFE2CFCC
:1030B000DAFFE652E652FC0EDBCF14F0FD0EDBCF5A
:1030C00015F0060ED89014361536E804FBE114C04E
:1030D000DEFF15C0DDFF010EDB50BB6EDF50E840A8
:1030E000E8403F0B300B146ECF0EBA141410BA6EBA
:1030F000E552E552E552E5CFDAFFE7CFD9FF1200FE
:10310000D9CFE6FFDACFE6FFE1CFD9FFE2CFDAFF92
:10311000E652E652FC0EDBCF14F0FD0EDBCF15F0CD
:10312000060ED89014361536E804FBE114C0DEFF15
:1031300015C0DDFF010EDB50BE6EDF50E840E840F9
:103140003F0B300B146ECF0EBD141410BD6EE55244
:0E315000E552E552E5CFDAFFE7CFD9FF1200D6
:02315E00D9CFC7
:10316000E6FFDACFE6FFE1CFD9FFE2CFDAFFFF0ECD
:10317000E76EFC0EDBCF14F0FD0EDBCF15F0E75051
:103180001416156A1450A96EA69CA69EA68000006F
:103190000000A85000D0E552E5CFDAFFE7CFD9FF15
:0231A00012001B
:0E31A200D9CFE6FFDACFE6FFE1CFD9FFE2CFCB
:1031B000DAFFFD0EDB50FB0BCA6ECC6A9E92FD0E51
:1031C000DBAE02D09D8201D09D92CA84E552E5CF4C
:0831D000DAFFE7CFD9FF12007E
:0831D800D9CFE6FFDACFE6FFD4
:1031E000E1CFD9FFE2CFDAFF3F0EC716C66AC56A44
:1031F000FD0EDB50C612FC0EDB50C712938293808B
:0E320000C68AE552E5CFDAFFE7CFD9FF12000C
:02320E00FE0EB2
:10321000E3CFE9FFFF0EE3CFEAFFE9CFF3FFEACF09
:10322000F4FFFB0EE35003E1FC0EE35009E0FB0E5C
:10323000E30602E2FC0EE306FD0EE350EE6EF1D76C
:0232400012007A
:0E324200D9CFE6FFDACFE6FFE1CFD9FFE2CF2A
:10325000DAFF0C0EBD129494CA94FD0EDB50CB6EB7
:10326000CA84E552E5CFDAFFE7CFD9FF1200949484
:0232700012004A
:0E3272001200D9CFE6FFE1CFD9FFE552E7CF3A
:10328000D9FF1200D9CFE6FFE1CFD9FFFD0EDBCF8A
:10329000E9FFFE0EDBCFEAFFEF6AE552E7CFD9FF89
:0232A00012001A
:0E32A200FF0EE3501A6E480E01D04C0EE76E80
:1032B000E72EFED7E76AE72EFED71A2EF7D70000D3
:0232C0001200FA
:0E32C200000EF36E00EE00F0080E01D81200B0
:1032D000EA6002D0EE6AFCD7F350E9601200EE6AB1
:0232E000FCD719
:0E32E20013EE00F023EE00F0F86A019C5BECA6
:0E32F00017F08AEC19F052EC12F0FBD7120026
:0232FE001F0EA1
:0C330000C514FDE1C750040BFAE11200F7
:04330C00BA6A120087
:04331000BD6A120080
:023314001200A5
:0A33160000000000010000000000AC
:0A332000000000000000000202029D
:020000040030CA
:0100000024DB
:010001000EF0
:010002003FBE
:010003001EDE
:010005008179
:010006008178
:010008000FE8
:01000900C036
:01000A000FE6
:01000B00E014
:01000C000FE4
:01000D0040B2
:00000001FF
