:02000000562880
:10000800803120007F08F400911D522891112D3075
:10001800F3007308F600240014087605F30073084B
:10002800F7004428F8011108F3007308F500422886
:100038001108F3007808203E8600870173088100C4
:100048000130F3007308F80707307802031C4228D0
:10005800F80142281108F3007308F5003628083023
:1000680078020318F8017808283E860087010108FD
:10007800E1200130F3007308F80724001516522810
:100088007708093A03191628043A03192E28243A3E
:1000980003191C28043A031933285228740820002D
:1000A800FF0009005728F80120308400003085003F
:1000B8001030F9202000C5282100991378309904C0
:1000C8001908FC3902389900E03023008C0521001A
:1000D8001D102200981321000C108C140C158C1183
:1000E8000C128C1222001D1421008C1625001308F6
:1000F800F0390C3893003F309305FF3020009B0007
:1001080025009101CF30930520009110FC309C050B
:100118001C1521008C128B170B17911520009111BB
:100128003630240095000130960010309700940175
:100138001630920008002000B2003208B000B10169
:10014800B035B10DB035B10D3008B3003108B40089
:1001580033080339B000B00E25001308200030061C
:10016800CF3930062500930020003408B100330849
:10017800B000B136B00CB136B00C30082500910093
:100188000800602064309F20FF2020002008013AEA
:10019800031DD12802212000A0012008023A031DD6
:1001A800D828FF202000A0012008033A031DC928F1
:1001B80021089F202000A001C928F100F201F20ABD
:1001C8002400141CF428E4287F30F00070089505FA
:1001D80071089100951FF328F201F20AF428F20140
:1001E800F208031DE8281516080064008001013193
:1001F800890BFA28003421008C16080021008C1283
:020208000800EC
:020000040001F9
:04000E00A4FFFFFE4E
:00000001FF
